:020000040000FA
:1000000002EF00F0836A826B180E936E000E956EFD
:100010008380828183828283839482A117EF00F0A0
:100020001AEF00F082B320EF00F01DEF00F0839094
:1000300012EF00F0838012EF00F0839223EF00F0C4
:10004000838223EF00F082A12DEF00F082B32DEF29
:1000500000F08285838431EF00F08295839431EF44
:1000600000F0FF0E806F81B643EF00F0802F33EF7A
:1000700000F081A639EF00F082A142EF00F08291FA
:1000800043EF00F08281FF0E816F81B80DEF00F029
:10009000812F45EF00F081A84BEF00F082A354EFD1
:0E00A00000F082930DEF00F082830DEF00F070
:00000001FF
