:020000040000FA
:1000000002EF00F0836A816B180E936E000E956EFE
:100010008380819183828193839481A11BEF00F07F
:1000200017EF00F081B31FEF00F023EF00F08380A3
:10003000818112EF00F08390819112EF00F08382B2
:10004000818329EF00F0839281938384818529EF56
:1000500000F0FF0E806F81B638EF00F0802F2BEF9D
:1000600000F081A137EF00F0819138EF00F081813D
:10007000806F81B80DEF00F0802F39EF00F081A381
:1000800045EF00F081930DEF00F081810DEF00F05E
:00000001FF
