:020000040000FA
:1000000002EF00F0836A816B180E936E000E956EFE
:100010008380818183828183839481A117EF00F0A3
:100020001AEF00F081B320EF00F01DEF00F0839095
:1000300012EF00F0838012EF00F0839223EF00F0C4
:10004000838223EF00F081A12DEF00F081B32DEF2B
:1000500000F08185838431EF00F08195839431EF46
:1000600000F0FF0E806F81B643EF00F0802F33EF7A
:1000700000F081A639EF00F081A142EF00F08191FC
:1000800043EF00F08181FF0E806F81B80DEF00F02B
:10009000802F45EF00F081A64BEF00F081A354EFD5
:0E00A00000F081930DEF00F081810DEF00F074
:00000001FF
